:08000000803102288731E92F4D
:10000C0021000E1523000E1521001D139D121D1627
:10001C009D151D119E101E10220097179714171076
:10002C0021001E179E121E169E171D149C019B016B
:10003C0008002200910193019201940121000C12FD
:10004C0022000C1621008C1222008C1621008D121D
:10005C0023008D1222008D1621000E1323000E1387
:10006C0022000E1321008E1323008E1320008E17F6
:10007C0021000D1223000D1222000D1621000D136C
:10008C0020000D1721000E120800F30122008D1222
:10009C000630F2003030890B5128F20B5128003217
:1000AC0022008D1620308F31B02780310C308F31EB
:1000BC00B027803180308F31B027803140308F3184
:1000CC00B027803121308F31B027803106308F310D
:1000DC00B027803112308F31B027803114308F31FE
:1000EC00B02780319F308F31B0278031B8308F31BD
:1000FC00B027803120308F31B02780310C308F31D8
:10010C00B02780310800003400340034003400344F
:10011C000034003400340034003400340034003433
:10012C000034003400340034003400340034003423
:10013C000034003400340034003400340034003413
:10014C000034003400340034003400340034003403
:10015C0000340034003400340034003400340034F3
:10016C0000340034003400340034003400340034E3
:10017C0000340034003400340034003400340034D3
:10018C0000340034003400340034003400340034C3
:10019C000034003400340034003400343034C834BB
:1001AC008834FF340034FF349934A9346634003475
:1001BC000034003400348034803480348034803413
:1001CC008034803480348034803480348034803483
:1001DC008034803480348034803480348034803473
:1001EC008034803480348034803480348034803463
:1001FC008034803480348034803480348034803453
:10020C008034803480348034803480348034803442
:10021C008034803480348034803480348034803432
:10022C008034803480348034803480348034803422
:10023C008034803480348034803480348034803412
:10024C008034803480348034803480348034003482
:10025C0000340034003400340034003400340134F1
:10026C0000340034003400340034003400340034E2
:10027C0000340034003400340034003401340034D1
:10028C0000340034003400340034003400340134C1
:10029C0000340034003400340034003400340034B2
:1002AC0000340034003400340034003400340034A2
:1002BC000034013400340034003400340034003491
:1002CC000034003400340034003400340034003482
:1002DC000034003400340034003400340034003472
:1002EC000034003400340134003400340034003461
:1002FC000034003401340034003400340034003451
:10030C000034003400340034003400340034003441
:10031C000034003400340034003400340034003431
:10032C000034003400340034003400340034003421
:10033C000034003400340034003400340034003411
:10034C000034003400340034003400340034003401
:10035C0000340034003400340034003400340034F1
:10036C0000340034003400340034003400340034E1
:10037C0000340034003400340034003400340034D1
:10038C0000340034003400340034003400340034C1
:10039C0000340034003400340034003400340034B1
:1003AC0000340034003400340034003400340034A1
:1003BC000034003400340034003400340034003491
:1003CC000034003400340034003400340034003481
:1003DC000034003400340034003400340034003471
:1003EC000034003400340034003400340034003461
:1003FC000034003400340034003400340034003451
:10040C000034003400340034003400340034003440
:10041C000034003400340034003400340034003430
:10042C000034003400340034003400340034003420
:10043C000034003400340034003400340034003410
:10044C000034003400340034003400340034003400
:10045C0000340034003400340034003400340034F0
:10046C0000340034003400340034003400340034E0
:10047C0000340034003400340034003400340034D0
:10048C0000340034003400340034003400340034C0
:10049C0000340034003400340034003400340034B0
:1004AC0000340034003400340034003400340034A0
:1004BC000034003400340034003400340034003490
:1004CC000034003400340034003400340034003480
:1004DC000034003400340034003400340034003470
:1004EC000034003400340034003400340034003460
:1004FC000034003400348F319427823180311F2036
:10050C0082318F31D42782318031062082318F3174
:10051C00A52782318F319027823180314B20823157
:10052C0021009D149D189B2A9C2A982A1C082000A7
:10053C00BC0021001B082000BB003C08803AA00036
:10054C0080302002031DAC2A2E303B020318AF2A48
:10055C00B02AB52A2D302000BB000030BC00200092
:10056C003C08803AA00080302002031DBF2A87304F
:10057C003B02031CC22AC32AC82A87302000BB00B6
:10058C000030BC0020003B08013EBB0000303C3D6D
:10059C00BC00B701B80120003C0885003B08840072
:1005AC008435850D6A3084078930853D003FF00025
:1005BC00013FF1003808F3003708F2008F31E127D2
:1005CC00823171082000B0007008AF003C08850033
:1005DC003B0884008435850D003084078830853DC8
:1005EC00003FF000013FF1003808F3003708F2003B
:1005FC008F31E127823171082000B2007008B10000
:10060C003008A1002F08A0000830A200210DA10C79
:10061C00A00CA20B0C2B20082A3EB5000030213D6B
:10062C00B6003208A1003108A0000830A200210D4C
:10063C00A10CA00CA20B1D2B2008F73EB300FF3021
:10064C00213DB4003408F1003308F0003930A0002B
:10065C002008F2008431B424823122308F31B0274B
:10066C0082312000B41B3B2B3C2B832B3908A00080
:10067C00A1012008F0002108F1005430F2000030F4
:10068C00F3008F31E1278231F8302000A2002130B5
:10069C00A30070082207A4007108233DA5003508AB
:1006AC00240786003608253D87003A080104A60079
:1006BC003908A700A8012708F0002808F1005430D9
:1006CC00F2000030F3008F31E1278231F830200046
:1006DC00A9002130AA0070082907AB0071082A3D37
:1006EC00AC0035082B07AD0036082C3DAE002D08AC
:1006FC0086002E088700260881000130B7070030DD
:10070C00B83D3808803AA00080302002031D902BA1
:10071C003B303702031C932B942BD12A2000BE01B3
:10072C00BD0120308F31B027823120003D08A00060
:10073C00A1013E08A200A3012208F0002308F10049
:10074C005430F2000030F3008F31E1278231F83061
:10075C002000A4002130A50070082407A600710811
:10076C00253DA7002008260786002108273D870085
:10077C0001088F31BC27823101302000A0002008F5
:10078C00BD0754303D02031CCC2BCD2B972B0130D5
:10079C00A0002008BE0706303E02031CD62BD72B28
:1007AC00962BBE013E03031DDC2BDD2B112CBD0152
:1007BC003D08A000A1013E08A200A3012208F00000
:1007CC002308F1005430F2000030F3008F31E127A0
:1007DC008231F8302000A4002130A50070082407D5
:1007EC00A6007108253DA70020082607A8002108AF
:1007FC00273DA90028088600290887008030810041
:10080C000130A0002008BD0754303D02031C0F2C02
:10081C00102CDE2BA52C02303E06031D162C172C9B
:10082C00772CBD0107303D05A0002003031D1F2CB4
:10083C00202C492C3D08A000A1013E08A200A301D8
:10084C002208F0002308F1005430F2000030F300CD
:10085C008F31E1278231F8302000A4002130A5002F
:10086C0070082407A6007108253DA700200826075C
:10087C00A8002108273DA900280886002908870020
:10088C00033081006C2C3D08A000A1013E08A200A1
:10089C00A3012208F0002308F1005430F2000030CC
:1008AC00F3008F31E1278231F8302000A400213091
:1008BC00A50070082407A6007108253DA700200894
:1008CC00260786002108273D870081010130A00002
:1008DC002008BD0754303D02031C752C762C182CB7
:1008EC00A52CBD013D08A000A1013E08A200A3015A
:1008FC002208F0002308F1005430F2000030F3001D
:10090C008F31E1278231F8302000A4002130A5007E
:10091C0070082407A6007108253DA70020082607AB
:10092C0086002108273D870081010130A0002008A6
:10093C00BD0754303D02031CA42CA52C782C01308F
:10094C00A0002008BE0706303E02031CAE2CAF2CC4
:10095C00D82B10308E06962A80310228512F72081F
:10096C00860087018101720A860087018101810A54
:10097C00E82F72088600870181010230F300720AA9
:10098C008600870173088100E82F720886008701B2
:10099C0081010430F300720A86008701730881001C
:1009AC00E82F72088600870181010830F300720A73
:1009BC008600870173088100E82F72088600870182
:1009CC0081011030F300720A8600870173088100E0
:1009DC00E82F72088600870181012030F300720A2B
:1009EC008600870173088100E82F72088600870152
:1009FC0081014030F300720A860087017308810080
:100A0C00E82F72088600870181018030F300720A9A
:100A1C008600870173088100E82F72088600870121
:100A2C008101810A720A860087018101810AE82FFF
:100A3C007208860087018101810A0230F300720A74
:100A4C008600870173088100E82F720886008701F1
:100A5C008101810A0430F300720A86008701730851
:100A6C008100E82F7208860087018101810A083015
:100A7C00F300720A8600870173088100E82F720860
:100A8C00860087018101810A1030F300720A86000A
:100A9C00870173088100E82F7208860087018101A5
:100AAC00810A2030F300720A8600870173088100E6
:100ABC00E82F7208860087018101810A4030F3001B
:100ACC00720A8600870173088100E82F720886007D
:100ADC0087018101810A8030F300720A8600870148
:100AEC0073088100E82F0230F3007208860087013A
:100AFC0073088100720A860087018101810AE82F40
:100B0C000230F300720886008701730881000230FE
:100B1C00F300720A8600870173088100E82F023007
:100B2C00F300720886008701730881000430F3001B
:100B3C00720A8600870173088100E82F0230F300E7
:100B4C00720886008701730881000830F300720A6E
:100B5C008600870173088100E82F0230F3007208C9
:100B6C0086008701730881001030F300720A86003A
:100B7C00870173088100E82F0230F30072088600A9
:100B8C008701730881002030F300720A8600870108
:100B9C0073088100E82F0230F30072088600870189
:100BAC00730881004030F300720A860087017308D5
:100BBC008100E82F0230F300720886008701730869
:100BCC0081008030F300720A86008701730881006F
:100BDC00E82F0330F3007208860087017308810048
:100BEC00720A860087018101810AE82F0330F30025
:100BFC00720886008701730881000230F300720AC4
:100C0C008600870173088100E82F0330F300720817
:100C1C0086008701730881000430F300720A860095
:100C2C00870173088100E82F0330F30072088600F7
:100C3C008701730881000830F300720A860087016F
:100C4C0073088100E82F0330F300720886008701D7
:100C5C00730881001030F300720A86008701730854
:100C6C008100E82F0330F3007208860087017308B7
:100C7C0081002030F300720A86008701730881001E
:100C8C00E82F0330F3007208860087017308810097
:100C9C004030F300720A8600870173088100E82F48
:100CAC000330F300720886008701730881008030DE
:100CBC00F300720A8600870173088100E82F043064
:100CCC00F30072088600870173088100720A86009F
:100CDC0087018101810AE82F0430F3007208860035
:100CEC008701730881000230F300720A86008701C5
:100CFC0073088100E82F0430F30072088600870126
:100D0C00730881000430F300720A860087017308AF
:100D1C008100E82F0430F300720886008701730805
:100D2C0081000830F300720A860087017308810085
:100D3C00E82F0430F30072088600870173088100E5
:100D4C001030F300720A8600870173088100E82FC7
:100D5C000430F3007208860087017308810020308C
:100D6C00F300720A8600870173088100E82F0430B3
:100D7C00F300720886008701730881004030F3008D
:100D8C00720A8600870173088100E82F0430F30093
:100D9C00720886008701730881008030F300720AA4
:100DAC008600870173088100E82F0530F300720874
:100DBC008600870173088100720A86008701810111
:100DCC00810AE82F0530F30072088600870173084A
:100DDC0081000230F300720A8600870173088100DB
:100DEC00E82F0530F3007208860087017308810034
:100DFC000430F300720A8600870173088100E82F23
:100E0C000530F300720886008701730881000830F2
:100E1C00F300720A8600870173088100E82F053001
:100E2C00F300720886008701730881001030F3000C
:100E3C00720A8600870173088100E82F0530F300E1
:100E4C00720886008701730881002030F300720A53
:100E5C008600870173088100E82F0530F3007208C3
:100E6C0086008701730881004030F300720A860007
:100E7C00870173088100E82F0530F30072088600A3
:100E8C008701730881008030F300720A86008701A5
:100E9C0073088100E82F7108003A0319562FE82FC8
:100EAC007008003A0319422F013A0319332F033A01
:100EBC000319242F013A0319152F073A0319062F8A
:100ECC00013A0319F72E033A0319E82E013A0319D4
:100EDC00DB2E0F3A0319CC2E013A0319BD2E033A1F
:100EEC000319AE2E013A03199F2E073A0319902EBF
:100EFC00013A0319812E033A0319722E013A031990
:100F0C00652E1F3A0319562E013A0319472E033A40
:100F1C000319382E013A0319292E073A03191A2EF0
:100F2C00013A03190B2E033A0319FC2D013A03194C
:100F3C00EF2D0F3A0319E02D013A0319D12D033A85
:100F4C000319C22D013A0319B32D073A0319A42D25
:100F5C00013A0319952D033A0319862D013A031909
:100F6C00792D3F3A03196C2D013A03195F2D033A81
:100F7C000319522D013A0319452D073A0319382D3F
:100F8C00013A03192B2D033A03191E2D013A0319AB
:100F9C00132D0F3A0319072D013A0319FB2C033AB1
:100FAC000319EF2C013A0319E32C073A0319D72C38
:100FBC00013A0319CB2C033A0319BF2C013A03193C
:100FCC00B52CE82F08008930840080308500F8307B
:100FDC008600213087000130FF00F8308F31C827A0
:100FEC008731F601F701BB01BC01BD01BE01200038
:100FFC008231812A00340034043400340834003443
:10100C000D34003411340034163400341A340034E6
:10101C001F34003423340034273400342C3400348F
:10102C003034003435340034393400343D34003439
:10103C0041340034463400344A3400344E340034E5
:10104C0053340034573400345B3400345F34003490
:10105C0063340034673400346B3400346F34003440
:10106C0073340034773400347B3400347F340034F0
:10107C0083340034873400348A3400348E340034A2
:10108C009234003495340034993400349C34003458
:10109C00A0340034A3340034A7340034AA34003410
:1010AC00AD340034B1340034B4340034B7340034CB
:1010BC00BA340034BD340034C0340034C33400348A
:1010CC00C6340034C8340034CB340034CE3400344D
:1010DC00D0340034D3340034D5340034D834003414
:1010EC00DA340034DC340034DF340034E1340034DE
:1010FC00E3340034E5340034E7340034E8340034AD
:10110C00EA340034EC340034EE340034EF34003480
:10111C00F1340034F2340034F3340034F534003458
:10112C00F6340034F7340034F8340034F934003435
:10113C00FA340034FB340034FB340034FC34003417
:10114C00FD340034FD340034FE340034FE340034FD
:10115C00FE340034FE340034FE340034FF340034EA
:10116C00FE340034FE340034FE340034FE340034DB
:10117C00FE340034FD340034FD340034FC340034CF
:10118C00FB340034FB340034FA340034F9340034CA
:10119C00F8340034F7340034F6340034F5340034C9
:1011AC00F3340034F2340034F1340034EF340034CE
:1011BC00EE340034EC340034EA340034E8340034D7
:1011CC00E7340034E5340034E3340034E1340034E3
:1011DC00DF340034DC340034DA340034D8340034F6
:1011EC00D5340034D3340034D0340034CE3400340D
:1011FC00CB340034C8340034C6340034C334003427
:10120C00C0340034BD340034BA340034B734003444
:10121C00B4340034B1340034AD340034AA34003466
:10122C00A7340034A3340034A03400349C3400348C
:10123C009934003495340034923400348E340034B4
:10124C008A34003487340034833400347F340034DF
:10125C007B34003477340034733400346F3400340E
:10126C006B34003467340034633400345F3400343E
:10127C005B34003457340034533400344E3400346F
:10128C004A34003446340034413400343D340034A4
:10129C003934003435340034303400342C340034D8
:1012AC0027340034233400341F3400341A3400340F
:1012BC0016340034113400340D3400340834003446
:1012CC0004340034003400340134FF340234FF346D
:1012DC000234FF340234FF340234FF340234FF345E
:1012EC000334FF340334FF340434FF340534FF3447
:1012FC000534FF340634FF340734FF340834FF342C
:10130C000934FF340A34FF340B34FF340D34FF340A
:10131C000E34FF340F34FF341134FF341234FF34E5
:10132C001434FF341634FF341834FF341934FF34BA
:10133C001B34FF341D34FF341F34FF342134FF348D
:10134C002434FF342634FF342834FF342B34FF3458
:10135C002D34FF343034FF343234FF343534FF3421
:10136C003834FF343A34FF343D34FF344034FF34E6
:10137C004334FF344634FF344934FF344C34FF34A7
:10138C004F34FF345334FF345634FF345934FF3464
:10139C005D34FF346034FF346434FF346734FF341D
:1013AC006B34FF346E34FF347234FF347634FF34D4
:1013BC007934FF347D34FF348134FF348534FF3489
:1013CC008934FF348D34FF349134FF349534FF3439
:1013DC009934FF349D34FF34A134FF34A534FF34E9
:1013EC00A934FF34AD34FF34B234FF34B634FF3497
:1013FC00BA34FF34BF34FF34C334FF34C734FF3442
:10140C00CB34FF34D034FF34D434FF34D934FF34EC
:10141C00DD34FF34E134FF34E634FF34EA34FF3496
:10142C00EF34FF34F334FF34F834FF34FC34FF343E
:10143C000034003404340034083400340D340034E7
:10144C0011340034163400341A3400341F34003490
:10145C0023340034273400342C340034303400343A
:10146C0035340034393400343D34003441340034E4
:10147C00463400344A3400344E340034533400348F
:10148C00573400345B3400345F340034633400343C
:10149C00673400346B3400346F34003473340034EC
:1014AC00773400347B3400347F340034833400349C
:1014BC00873400348A3400348E340034923400344F
:1014CC0095340034993400349C340034A034003406
:1014DC00A3340034A7340034AA340034AD340034BF
:1014EC00B1340034B4340034B7340034BA3400347A
:1014FC00BD340034C0340034C3340034C63400343A
:10150C00C8340034CB340034CE340034D0340034FE
:10151C00D3340034D5340034D8340034DA340034C5
:10152C00DC340034DF340034E1340034E334003490
:10153C00E5340034E7340034E8340034EA34003461
:10154C00EC340034EE340034EF340034F134003435
:10155C00F2340034F3340034F5340034F63400340F
:10156C00F7340034F8340034F9340034FA340034ED
:10157C00FB340034FB340034FC340034FD340034D0
:10158C00FD340034FE340034FE340034FE340034B8
:0C159C00FE340034FE340034FF34003410
:101F200023001E119F1108002100991619169915FA
:101F30001915991419100800F00070082400910078
:101F4000141CA32FA42FA02F080021008D13230001
:101F50009E161E129D1700309C0019309B00080031
:101F6000F10020000C1222000E1371088F319C2703
:101F70008F3120000C160800F10020000C12220006
:101F80000E1771088F319C278F3120000C16080026
:101F9000FE0012001E000130FE020030FF3B7F08F1
:101FA0007E04031DC92F00342400951315139516C4
:101FB000151215109510151195111417941714106A
:101FC0000800F401F501701CE62FE72FEB2F7208D3
:101FD000F4077308F53D0130F235F30D890BEC2F52
:101FE0000130F136F00C890BF12F70087104031DDC
:101FF000FA2FFB2FE32F7508F1007408F00008009A
:06200000FF34003401343E
:020000040001F9
:08000000FF3FFF3FFF3FFF3F00
:04000E00E43FFF3E8E
:00000001FF
